{
  "contractName": "CoinFlip",
  "abi": [
    {
      "inputs": [],
      "name": "lifetimeValue",
      "outputs": [
        {
          "internalType": "uint256",
          "name": "",
          "type": "uint256"
        }
      ],
      "stateMutability": "view",
      "type": "function",
      "constant": true
    },
    {
      "inputs": [
        {
          "internalType": "uint256",
          "name": "",
          "type": "uint256"
        }
      ],
      "name": "matches",
      "outputs": [
        {
          "internalType": "address",
          "name": "player1",
          "type": "address"
        },
        {
          "internalType": "address",
          "name": "player2",
          "type": "address"
        },
        {
          "internalType": "uint256",
          "name": "bet1",
          "type": "uint256"
        },
        {
          "internalType": "uint256",
          "name": "bet2",
          "type": "uint256"
        },
        {
          "internalType": "bool",
          "name": "complete",
          "type": "bool"
        },
        {
          "internalType": "uint256",
          "name": "result",
          "type": "uint256"
        }
      ],
      "stateMutability": "view",
      "type": "function",
      "constant": true
    },
    {
      "inputs": [],
      "name": "totalMatches",
      "outputs": [
        {
          "internalType": "uint256",
          "name": "",
          "type": "uint256"
        }
      ],
      "stateMutability": "view",
      "type": "function",
      "constant": true
    },
    {
      "inputs": [],
      "name": "createMatch",
      "outputs": [
        {
          "internalType": "uint256",
          "name": "",
          "type": "uint256"
        }
      ],
      "stateMutability": "payable",
      "type": "function",
      "payable": true
    },
    {
      "inputs": [
        {
          "internalType": "uint256",
          "name": "matchId",
          "type": "uint256"
        }
      ],
      "name": "joinMatch",
      "outputs": [
        {
          "internalType": "string",
          "name": "",
          "type": "string"
        }
      ],
      "stateMutability": "payable",
      "type": "function",
      "payable": true
    }
  ],
  "bytecode": "0x608060405234801561001057600080fd5b50610cc0806100206000396000f3fe60806040526004361061004a5760003560e01c80632a5b14511461004f5780634768d4ef1461007a5780634e232b68146100bc578063a0cc641a146100e7578063feb8c43814610105575b600080fd5b34801561005b57600080fd5b50610064610135565b604051610071919061071d565b60405180910390f35b34801561008657600080fd5b506100a1600480360381019061009c9190610769565b61013b565b6040516100b3969594939291906107f2565b60405180910390f35b3480156100c857600080fd5b506100d16101c4565b6040516100de919061071d565b60405180910390f35b6100ef6101ca565b6040516100fc919061071d565b60405180910390f35b61011f600480360381019061011a9190610769565b6102c4565b60405161012c91906108e3565b60405180910390f35b60005481565b60026020528060005260406000206000915090508060000160009054906101000a900473ffffffffffffffffffffffffffffffffffffffff16908060010160009054906101000a900473ffffffffffffffffffffffffffffffffffffffff16908060020154908060030154908060040160009054906101000a900460ff16908060050154905086565b60015481565b600080341161020e576040517f08c379a000000000000000000000000000000000000000000000000000000000815260040161020590610977565b60405180910390fd5b33600260008054815260200190815260200160002060000160006101000a81548173ffffffffffffffffffffffffffffffffffffffff021916908373ffffffffffffffffffffffffffffffffffffffff16021790555034600260008054815260200190815260200160002060020181905550600080815480929190610292906109c6565b919050555034600160008282546102a99190610a0e565b9250508190555060016000546102bf9190610a42565b905090565b6060600054821061030a576040517f08c379a000000000000000000000000000000000000000000000000000000000815260040161030190610ac2565b60405180910390fd5b600015156002600084815260200190815260200160002060040160009054906101000a900460ff16151514610374576040517f08c379a000000000000000000000000000000000000000000000000000000000815260040161036b90610b2e565b60405180910390fd5b600260008381526020019081526020016000206002015434146103cc576040517f08c379a00000000000000000000000000000000000000000000000000000000081526004016103c390610bc0565b60405180910390fd5b336002600084815260200190815260200160002060010160006101000a81548173ffffffffffffffffffffffffffffffffffffffff021916908373ffffffffffffffffffffffffffffffffffffffff160217905550346002600084815260200190815260200160002060030181905550346001600082825461044e9190610a0e565b9250508190555061045e82610465565b9050919050565b606060005482106104ab576040517f08c379a00000000000000000000000000000000000000000000000000000000081526004016104a290610ac2565b60405180910390fd5b60006002426104ba9190610c0f565b9050600081036105e4576002600084815260200190815260200160002060000160009054906101000a900473ffffffffffffffffffffffffffffffffffffffff1673ffffffffffffffffffffffffffffffffffffffff166108fc6002600086815260200190815260200160002060030154600260008781526020019081526020016000206002015461054c9190610a0e565b9081150290604051600060405180830381858888f19350505050158015610577573d6000803e3d6000fd5b5060016002600085815260200190815260200160002060040160006101000a81548160ff02191690831515021790555060016002600085815260200190815260200160002060050181905550604051806060016040528060258152602001610c66602591399150506106ff565b6002600084815260200190815260200160002060010160009054906101000a900473ffffffffffffffffffffffffffffffffffffffff1673ffffffffffffffffffffffffffffffffffffffff166108fc6002600086815260200190815260200160002060030154600260008781526020019081526020016000206002015461066c9190610a0e565b9081150290604051600060405180830381858888f19350505050158015610697573d6000803e3d6000fd5b5060016002600085815260200190815260200160002060040160006101000a81548160ff021916908315150217905550600280600085815260200190815260200160002060050181905550604051806060016040528060258152602001610c41602591399150505b919050565b6000819050919050565b61071781610704565b82525050565b6000602082019050610732600083018461070e565b92915050565b600080fd5b61074681610704565b811461075157600080fd5b50565b6000813590506107638161073d565b92915050565b60006020828403121561077f5761077e610738565b5b600061078d84828501610754565b91505092915050565b600073ffffffffffffffffffffffffffffffffffffffff82169050919050565b60006107c182610796565b9050919050565b6107d1816107b6565b82525050565b60008115159050919050565b6107ec816107d7565b82525050565b600060c08201905061080760008301896107c8565b61081460208301886107c8565b610821604083018761070e565b61082e606083018661070e565b61083b60808301856107e3565b61084860a083018461070e565b979650505050505050565b600081519050919050565b600082825260208201905092915050565b60005b8381101561088d578082015181840152602081019050610872565b60008484015250505050565b6000601f19601f8301169050919050565b60006108b582610853565b6108bf818561085e565b93506108cf81856020860161086f565b6108d881610899565b840191505092915050565b600060208201905081810360008301526108fd81846108aa565b905092915050565b7f596f75206d7573742073656e6420736f6d6520657468657220746f206372656160008201527f74652061206d6174636800000000000000000000000000000000000000000000602082015250565b6000610961602a8361085e565b915061096c82610905565b604082019050919050565b6000602082019050818103600083015261099081610954565b9050919050565b7f4e487b7100000000000000000000000000000000000000000000000000000000600052601160045260246000fd5b60006109d182610704565b91507fffffffffffffffffffffffffffffffffffffffffffffffffffffffffffffffff8203610a0357610a02610997565b5b600182019050919050565b6000610a1982610704565b9150610a2483610704565b9250828201905080821115610a3c57610a3b610997565b5b92915050565b6000610a4d82610704565b9150610a5883610704565b9250828203905081811115610a7057610a6f610997565b5b92915050565b7f496e76616c6964206d6174636820494400000000000000000000000000000000600082015250565b6000610aac60108361085e565b9150610ab782610a76565b602082019050919050565b60006020820190508181036000830152610adb81610a9f565b9050919050565b7f54686973206d6174636820697320616c726561647920636f6d706c6574650000600082015250565b6000610b18601e8361085e565b9150610b2382610ae2565b602082019050919050565b60006020820190508181036000830152610b4781610b0b565b9050919050565b7f596f75206d7573742073656e64207468652073616d6520616d6f756e74206f6660008201527f2065746865722061732074686520626574312076616c75650000000000000000602082015250565b6000610baa60388361085e565b9150610bb582610b4e565b604082019050919050565b60006020820190508181036000830152610bd981610b9d565b9050919050565b7f4e487b7100000000000000000000000000000000000000000000000000000000600052601260045260246000fd5b6000610c1a82610704565b9150610c2583610704565b925082610c3557610c34610be0565b5b82820690509291505056fe54686520636f696e2063616d65207570207461696c732c20706c6179657220322077696e7354686520636f696e2063616d652075702068656164732e20706c6179657220312077696e73a2646970667358221220b95714a83e1195c47327c0e707276bc11d60fc4d235279574f5a7a15b33faa0b64736f6c63430008130033",
  "immutableReferences": {},
  "source": "//SPDX-License-Identifier: MIT\r\npragma solidity ^0.8.0;\r\n\r\nimport \"@openzeppelin/contracts/utils/Strings.sol\";\r\n\r\ncontract CoinFlip {\r\n    uint256 public totalMatches;\r\n    uint256 public lifetimeValue;\r\n    //Make all public matches accessible based on a match ID\r\n    mapping(uint256 => Match) public matches;\r\n\r\n    struct Match {\r\n        address player1;\r\n        address player2;\r\n        uint256 bet1;\r\n        uint256 bet2;\r\n        bool complete;\r\n        uint256 result;\r\n    }\r\n\r\n    //Create a new match\r\n    function createMatch() public payable returns (uint256) {\r\n        //Require that the player has sent some ether\r\n        require(msg.value > 0, \"You must send some ether to create a match\");\r\n        //Set the player1 address to the address of the player who created the match\r\n        matches[totalMatches].player1 = msg.sender;\r\n        //Set the bet1 value to the amount of ether sent\r\n        matches[totalMatches].bet1 = msg.value;\r\n        //Increment the totalMatches counter\r\n        totalMatches++;\r\n        //Increment the lifetimeValue counter\r\n        lifetimeValue += msg.value;\r\n        //Return the match ID\r\n        return totalMatches - 1;\r\n    }\r\n\r\n    //Allow a player to join the match based on the ID and flip the coin\r\n    function joinMatch(uint matchId) public payable returns (string memory) {\r\n        //Require that the match ID is valid\r\n        require(matchId < totalMatches, \"Invalid match ID\");\r\n        //Require that the match is not already complete\r\n        require(\r\n            matches[matchId].complete == false,\r\n            \"This match is already complete\"\r\n        );\r\n        //Require that the player has sent an amount of ether equal to the bet1 value\r\n        require(\r\n            msg.value == matches[matchId].bet1,\r\n            \"You must send the same amount of ether as the bet1 value\"\r\n        );\r\n        //Set the player2 address to the address of the player who joined the match\r\n        matches[matchId].player2 = msg.sender;\r\n        //Set the bet2 value to the amount of ether sent\r\n        matches[matchId].bet2 = msg.value;\r\n        //Increment the lifetimeValue counter\r\n        lifetimeValue += msg.value;\r\n        //Flip the coin\r\n        return flipCoin(matchId);\r\n    }\r\n\r\n    function flipCoin(uint matchId) private returns (string memory) {\r\n        //Require that the match ID is valid\r\n        require(matchId < totalMatches, \"Invalid match ID\");\r\n        //Generate a random number between 0 and 1\r\n        uint randomNumber = uint(block.timestamp) % 2;\r\n        //If the number is 0, player1 wins\r\n        if (randomNumber == 0) {\r\n            //Transfer the ether to player1\r\n            payable(matches[matchId].player1).transfer(\r\n                matches[matchId].bet1 + matches[matchId].bet2\r\n            );\r\n            matches[matchId].complete = true;\r\n            matches[matchId].result = 1;\r\n            return \"The coin came up heads. player 1 wins\";\r\n        }\r\n        //If the number is 1, player2 wins\r\n        else {\r\n            //Transfer the ether to player2\r\n            payable(matches[matchId].player2).transfer(\r\n                matches[matchId].bet1 + matches[matchId].bet2\r\n            );\r\n            matches[matchId].complete = true;\r\n            matches[matchId].result = 2;\r\n            return \"The coin came up tails, player 2 wins\";\r\n        }\r\n    }\r\n}\r\n",
  "sourcePath": "C:\\Users\\Alex\\solidity\\coin_flip\\contracts\\coin_flip.sol",
  "compiler": {
    "name": "solc",
    "version": "0.8.19+commit.7dd6d404.Emscripten.clang"
  },
  "schemaVersion": "3.4.13",
  "updatedAt": "2023-05-14T17:45:51.774Z",
  "networkType": "ethereum",
  "devdoc": {
    "kind": "dev",
    "methods": {},
    "version": 1
  },
  "userdoc": {
    "kind": "user",
    "methods": {},
    "version": 1
  }
}